{
  "address": "0x65F745b1e1fF2cD2FF105125E2CbFD6fA6231D85",
  "abi": [
    {
      "inputs": [],
      "stateMutability": "nonpayable",
      "type": "constructor"
    },
    {
      "anonymous": false,
      "inputs": [
        {
          "indexed": true,
          "internalType": "address",
          "name": "owner",
          "type": "address"
        },
        {
          "indexed": true,
          "internalType": "address",
          "name": "approved",
          "type": "address"
        },
        {
          "indexed": true,
          "internalType": "uint256",
          "name": "tokenId",
          "type": "uint256"
        }
      ],
      "name": "Approval",
      "type": "event"
    },
    {
      "anonymous": false,
      "inputs": [
        {
          "indexed": true,
          "internalType": "address",
          "name": "owner",
          "type": "address"
        },
        {
          "indexed": true,
          "internalType": "address",
          "name": "operator",
          "type": "address"
        },
        {
          "indexed": false,
          "internalType": "bool",
          "name": "approved",
          "type": "bool"
        }
      ],
      "name": "ApprovalForAll",
      "type": "event"
    },
    {
      "anonymous": false,
      "inputs": [
        {
          "indexed": false,
          "internalType": "string",
          "name": "newImageUri",
          "type": "string"
        }
      ],
      "name": "DefaultImageUriUpdated",
      "type": "event"
    },
    {
      "anonymous": false,
      "inputs": [
        {
          "indexed": false,
          "internalType": "string",
          "name": "newProvenanceCid",
          "type": "string"
        }
      ],
      "name": "DefaultProvenanceCidUpdated",
      "type": "event"
    },
    {
      "anonymous": false,
      "inputs": [
        {
          "indexed": true,
          "internalType": "address",
          "name": "previousOwner",
          "type": "address"
        },
        {
          "indexed": true,
          "internalType": "address",
          "name": "newOwner",
          "type": "address"
        }
      ],
      "name": "OwnershipTransferred",
      "type": "event"
    },
    {
      "anonymous": false,
      "inputs": [
        {
          "indexed": true,
          "internalType": "address",
          "name": "from",
          "type": "address"
        },
        {
          "indexed": true,
          "internalType": "address",
          "name": "to",
          "type": "address"
        },
        {
          "indexed": true,
          "internalType": "uint256",
          "name": "tokenId",
          "type": "uint256"
        }
      ],
      "name": "Transfer",
      "type": "event"
    },
    {
      "inputs": [],
      "name": "MAX_SUPPLY",
      "outputs": [
        {
          "internalType": "uint256",
          "name": "",
          "type": "uint256"
        }
      ],
      "stateMutability": "view",
      "type": "function"
    },
    {
      "inputs": [
        {
          "internalType": "address",
          "name": "",
          "type": "address"
        },
        {
          "internalType": "uint256",
          "name": "",
          "type": "uint256"
        }
      ],
      "name": "approve",
      "outputs": [],
      "stateMutability": "pure",
      "type": "function"
    },
    {
      "inputs": [
        {
          "internalType": "address",
          "name": "owner",
          "type": "address"
        }
      ],
      "name": "balanceOf",
      "outputs": [
        {
          "internalType": "uint256",
          "name": "",
          "type": "uint256"
        }
      ],
      "stateMutability": "view",
      "type": "function"
    },
    {
      "inputs": [],
      "name": "currentSupply",
      "outputs": [
        {
          "internalType": "uint256",
          "name": "",
          "type": "uint256"
        }
      ],
      "stateMutability": "view",
      "type": "function"
    },
    {
      "inputs": [],
      "name": "defaultImageUri",
      "outputs": [
        {
          "internalType": "string",
          "name": "",
          "type": "string"
        }
      ],
      "stateMutability": "view",
      "type": "function"
    },
    {
      "inputs": [],
      "name": "defaultProvenanceCid",
      "outputs": [
        {
          "internalType": "string",
          "name": "",
          "type": "string"
        }
      ],
      "stateMutability": "view",
      "type": "function"
    },
    {
      "inputs": [
        {
          "internalType": "uint256",
          "name": "tokenId",
          "type": "uint256"
        }
      ],
      "name": "getApproved",
      "outputs": [
        {
          "internalType": "address",
          "name": "",
          "type": "address"
        }
      ],
      "stateMutability": "view",
      "type": "function"
    },
    {
      "inputs": [
        {
          "internalType": "address",
          "name": "",
          "type": "address"
        }
      ],
      "name": "hasLicense",
      "outputs": [
        {
          "internalType": "bool",
          "name": "",
          "type": "bool"
        }
      ],
      "stateMutability": "view",
      "type": "function"
    },
    {
      "inputs": [
        {
          "internalType": "address",
          "name": "owner",
          "type": "address"
        },
        {
          "internalType": "address",
          "name": "operator",
          "type": "address"
        }
      ],
      "name": "isApprovedForAll",
      "outputs": [
        {
          "internalType": "bool",
          "name": "",
          "type": "bool"
        }
      ],
      "stateMutability": "view",
      "type": "function"
    },
    {
      "inputs": [
        {
          "internalType": "uint256",
          "name": "",
          "type": "uint256"
        }
      ],
      "name": "metadataByTokenId",
      "outputs": [
        {
          "internalType": "string",
          "name": "name",
          "type": "string"
        },
        {
          "internalType": "string",
          "name": "imageUri",
          "type": "string"
        },
        {
          "internalType": "string",
          "name": "provenanceCid",
          "type": "string"
        }
      ],
      "stateMutability": "view",
      "type": "function"
    },
    {
      "inputs": [
        {
          "internalType": "string",
          "name": "name",
          "type": "string"
        },
        {
          "internalType": "string",
          "name": "imageUri",
          "type": "string"
        },
        {
          "internalType": "string",
          "name": "provenanceCid",
          "type": "string"
        }
      ],
      "name": "mint",
      "outputs": [
        {
          "internalType": "uint256",
          "name": "",
          "type": "uint256"
        }
      ],
      "stateMutability": "nonpayable",
      "type": "function"
    },
    {
      "inputs": [],
      "name": "name",
      "outputs": [
        {
          "internalType": "string",
          "name": "",
          "type": "string"
        }
      ],
      "stateMutability": "view",
      "type": "function"
    },
    {
      "inputs": [],
      "name": "owner",
      "outputs": [
        {
          "internalType": "address",
          "name": "",
          "type": "address"
        }
      ],
      "stateMutability": "view",
      "type": "function"
    },
    {
      "inputs": [
        {
          "internalType": "uint256",
          "name": "tokenId",
          "type": "uint256"
        }
      ],
      "name": "ownerOf",
      "outputs": [
        {
          "internalType": "address",
          "name": "",
          "type": "address"
        }
      ],
      "stateMutability": "view",
      "type": "function"
    },
    {
      "inputs": [],
      "name": "remainingSupply",
      "outputs": [
        {
          "internalType": "uint256",
          "name": "",
          "type": "uint256"
        }
      ],
      "stateMutability": "view",
      "type": "function"
    },
    {
      "inputs": [],
      "name": "renounceOwnership",
      "outputs": [],
      "stateMutability": "nonpayable",
      "type": "function"
    },
    {
      "inputs": [
        {
          "internalType": "address",
          "name": "from",
          "type": "address"
        },
        {
          "internalType": "address",
          "name": "to",
          "type": "address"
        },
        {
          "internalType": "uint256",
          "name": "tokenId",
          "type": "uint256"
        }
      ],
      "name": "safeTransferFrom",
      "outputs": [],
      "stateMutability": "nonpayable",
      "type": "function"
    },
    {
      "inputs": [
        {
          "internalType": "address",
          "name": "from",
          "type": "address"
        },
        {
          "internalType": "address",
          "name": "to",
          "type": "address"
        },
        {
          "internalType": "uint256",
          "name": "tokenId",
          "type": "uint256"
        },
        {
          "internalType": "bytes",
          "name": "data",
          "type": "bytes"
        }
      ],
      "name": "safeTransferFrom",
      "outputs": [],
      "stateMutability": "nonpayable",
      "type": "function"
    },
    {
      "inputs": [
        {
          "internalType": "address",
          "name": "",
          "type": "address"
        },
        {
          "internalType": "bool",
          "name": "",
          "type": "bool"
        }
      ],
      "name": "setApprovalForAll",
      "outputs": [],
      "stateMutability": "pure",
      "type": "function"
    },
    {
      "inputs": [
        {
          "internalType": "bytes4",
          "name": "interfaceId",
          "type": "bytes4"
        }
      ],
      "name": "supportsInterface",
      "outputs": [
        {
          "internalType": "bool",
          "name": "",
          "type": "bool"
        }
      ],
      "stateMutability": "view",
      "type": "function"
    },
    {
      "inputs": [],
      "name": "symbol",
      "outputs": [
        {
          "internalType": "string",
          "name": "",
          "type": "string"
        }
      ],
      "stateMutability": "view",
      "type": "function"
    },
    {
      "inputs": [
        {
          "internalType": "uint256",
          "name": "index",
          "type": "uint256"
        }
      ],
      "name": "tokenByIndex",
      "outputs": [
        {
          "internalType": "uint256",
          "name": "",
          "type": "uint256"
        }
      ],
      "stateMutability": "view",
      "type": "function"
    },
    {
      "inputs": [
        {
          "internalType": "address",
          "name": "owner",
          "type": "address"
        },
        {
          "internalType": "uint256",
          "name": "index",
          "type": "uint256"
        }
      ],
      "name": "tokenOfOwnerByIndex",
      "outputs": [
        {
          "internalType": "uint256",
          "name": "",
          "type": "uint256"
        }
      ],
      "stateMutability": "view",
      "type": "function"
    },
    {
      "inputs": [
        {
          "internalType": "uint256",
          "name": "tokenId",
          "type": "uint256"
        }
      ],
      "name": "tokenURI",
      "outputs": [
        {
          "internalType": "string",
          "name": "",
          "type": "string"
        }
      ],
      "stateMutability": "view",
      "type": "function"
    },
    {
      "inputs": [],
      "name": "totalSupply",
      "outputs": [
        {
          "internalType": "uint256",
          "name": "",
          "type": "uint256"
        }
      ],
      "stateMutability": "view",
      "type": "function"
    },
    {
      "inputs": [
        {
          "internalType": "address",
          "name": "from",
          "type": "address"
        },
        {
          "internalType": "address",
          "name": "to",
          "type": "address"
        },
        {
          "internalType": "uint256",
          "name": "tokenId",
          "type": "uint256"
        }
      ],
      "name": "transferFrom",
      "outputs": [],
      "stateMutability": "nonpayable",
      "type": "function"
    },
    {
      "inputs": [
        {
          "internalType": "address",
          "name": "newOwner",
          "type": "address"
        }
      ],
      "name": "transferOwnership",
      "outputs": [],
      "stateMutability": "nonpayable",
      "type": "function"
    },
    {
      "inputs": [
        {
          "internalType": "string",
          "name": "newImageUri",
          "type": "string"
        }
      ],
      "name": "updateDefaultImageUri",
      "outputs": [],
      "stateMutability": "nonpayable",
      "type": "function"
    },
    {
      "inputs": [
        {
          "internalType": "string",
          "name": "newProvenanceCid",
          "type": "string"
        }
      ],
      "name": "updateDefaultProvenanceCid",
      "outputs": [],
      "stateMutability": "nonpayable",
      "type": "function"
    }
  ],
  "transactionHash": "0x3014784782fb1e050e9c88afa5be408739eb170eff05a29c1369b6813fe9d31b",
  "args": [],
  "numDeployments": 1,
  "solcInputHash": "60238968bfb42c213dbe4452a523be39",
  "bytecode": "0x6080604052346200044557620000146200044a565b60206542726f6c6c6960d01b818301526200002e6200044a565b6542524f4c4c4960d01b8282015282519091906001600160401b038082116200042f57600091806200006184546200046e565b96601f97888111620003ff575b508590888311600114620003975785926200038b575b50508160011b916000199060031b1c19161782555b83519081116200037757600193620000b285546200046e565b8681116200033c575b508390868311600114620002b1579282600396936c71793378657869676f64326e7160981b98969360008051602062002d18833981519152968492620002a5575b505060001982891b1c191690841b1783555b600a8054336001600160a01b0319821681179092556001600160a01b03167f8be0079c531659141344cd1fd0a4f28419497f9722a3daafe3b4186f6b6457e08380a382600b5562000161600f546200046e565b85811162000281575b5060db600f55600f8152818120946c74326a34736e3434616d69736960981b877f68747470733a2f2f74616e2d65766572796461792d6d6974652d3431392e6d79978881557f70696e6174612e636c6f75642f697066732f6261666b726569616c6d65326361878201557f336233366e7a713572717164716177336b326c653475766772647874646a333360028201550155620002096010546200046e565b8181116200025c575b505060db60105560108152209283558201557f736669726265747375356f776d35366f65716b687768716c787066676a696f34600282015501556040516128539081620004c58239f35b6004620002799260108552858520920160051c82019101620004ab565b388062000212565b600f82528282206200029e91870160051c810190600401620004ab565b386200016a565b015190503880620000fc565b8584528484209190601f198416855b818110620003265750936c71793378657869676f64326e7160981b98969360008051602062002d1883398151915296938996938360039b95106200030d575b505050811b0183556200010e565b0151600019838b1b60f8161c19169055388080620002ff565b82840151855593880193928701928701620002c0565b62000366908685528585208880860160051c8201928887106200036d575b0160051c0190620004ab565b38620000bb565b925081926200035a565b634e487b7160e01b82526041600452602482fd5b01519050388062000084565b8580528686209250601f198416865b88828210620003e8575050908460019594939210620003ce575b505050811b01825562000099565b015160001960f88460031b161c19169055388080620003c0565b6001859682939686015181550195019301620003a6565b62000428908680528787208a80860160051c8201928a87106200036d570160051c0190620004ab565b386200006e565b634e487b7160e01b600052604160045260246000fd5b600080fd5b60408051919082016001600160401b038111838210176200042f5760405260068252565b90600182811c92168015620004a0575b60208310146200048a57565b634e487b7160e01b600052602260045260246000fd5b91607f16916200047e565b818110620004b7575050565b60008155600101620004ab56fe60806040526004361015610013575b600080fd5b60003560e01c806301ffc9a71461025757806306fdde031461024e578063081812fc14610245578063095ea7b31461023c57806318160ddd1461023357806323b872dd1461022a5780632f745c591461022157806331ed2a1b1461021857806332cb6b0c1461020f5780633f428a491461020657806342842e0e146101fd57806342d322b4146101f45780634f6ccce7146101eb57806356afb487146101e25780635a481474146101d95780636352211e146101d057806370a08231146101c7578063715018a6146101be578063771282f6146101b55780638da5cb5b146101ac57806395d89b41146101a3578063a22cb4651461019a578063b88d4fde14610191578063c87b56dd14610188578063d645ddf61461017f578063da0239a614610176578063e1a0e2fd1461016d578063e985e9c5146101645763f2fde38b1461015c57600080fd5b61000e611599565b5061000e61153b565b5061000e6113ef565b5061000e6113a9565b5061000e6111f3565b5061000e610fae565b5061000e610f4d565b5061000e610f0e565b5061000e610e68565b5061000e610e3e565b5061000e610e1f565b5061000e610dc0565b5061000e610d94565b5061000e610d75565b5061000e610cf7565b5061000e610cb7565b5061000e610c0b565b5061000e610aba565b5061000e6109dc565b5061000e610946565b5061000e610929565b5061000e610893565b5061000e610550565b5061000e610524565b5061000e6104d0565b5061000e610498565b5061000e61043b565b5061000e610357565b5061000e610272565b6001600160e01b031981160361000e57565b503461000e57602036600319011261000e57602060043561029281610260565b63ffffffff60e01b1663780e9d6360e01b81149081156102b8575b506040519015158152f35b6380ac58cd60e01b8114915081156102ea575b81156102d9575b50386102ad565b6301ffc9a760e01b149050386102d2565b635b5e139f60e01b811491506102cb565b60005b83811061030e5750506000910152565b81810151838201526020016102fe565b90602091610337815180928185528580860191016102fb565b601f01601f1916010190565b90602061035492818152019061031e565b90565b503461000e57600080600319360112610438576040519080805461037a81610604565b8085529160019180831690811561040e57506001146103b4575b6103b0856103a48187038261069a565b60405191829182610343565b0390f35b80809450527f290decd9548b62a8d60345a988386fc84ba6bc95484008f6362f93160ef3e5635b8284106103f65750505081016020016103a4826103b0610394565b805460208587018101919091529093019281016103db565b8695506103b0969350602092506103a494915060ff191682840152151560051b8201019293610394565b80fd5b503461000e57602036600319011261000e57602061045a6004356117a1565b6040516001600160a01b039091168152f35b600435906001600160a01b038216820361000e57565b602435906001600160a01b038216820361000e57565b503461000e57604036600319011261000e576104b261046c565b5060405162461bcd60e51b8152806104cc60048201612480565b0390fd5b503461000e57600036600319011261000e576020600854604051908152f35b606090600319011261000e576001600160a01b0390600435828116810361000e5791602435908116810361000e579060443590565b503461000e5761054e610536366104ef565b916105496105448433611912565b6117df565b6119e4565b005b503461000e57604036600319011261000e5761056a61046c565b60243590610577816116bb565b8210156105ab576001600160a01b031660009081526006602090815260408083209383529281529082902054915191825290f35b60405162461bcd60e51b815260206004820152602b60248201527f455243373231456e756d657261626c653a206f776e657220696e646578206f7560448201526a74206f6620626f756e647360a81b6064820152608490fd5b90600182811c92168015610634575b602083101461061e57565b634e487b7160e01b600052602260045260246000fd5b91607f1691610613565b50634e487b7160e01b600052604160045260246000fd5b6020810190811067ffffffffffffffff82111761067157604052565b61067961063e565b604052565b6060810190811067ffffffffffffffff82111761067157604052565b90601f8019910116810190811067ffffffffffffffff82111761067157604052565b60405190600082600f54916106d083610604565b8083529260019081811690811561074657506001146106f9575b506106f79250038361069a565b565b600f600090815291506000805160206127fe8339815191525b84831061072b57506106f79350508101602001386106ea565b81935090816020925483858a01015201910190918592610712565b9050602092506106f794915060ff191682840152151560051b820101386106ea565b604051906000826010549161077c83610604565b8083529260019081811690811561074657506001146107a257506106f79250038361069a565b6010600090815291506000805160206127de8339815191525b8483106107d457506106f79350508101602001386106ea565b81935090816020925483858a010152019101909185926107bb565b906040519182600082549261080384610604565b908184526001948581169081600014610870575060011461082d575b50506106f79250038361069a565b9093915060005260209081600020936000915b8183106108585750506106f79350820101388061081f565b85548884018501529485019487945091830191610840565b9150506106f794506020925060ff191682840152151560051b820101388061081f565b503461000e57600080600319360112610438576040519080600f546108b781610604565b8085529160019180831690811561040e57506001146108e0576103b0856103a48187038261069a565b9250600f83526000805160206127fe8339815191525b8284106109115750505081016020016103a4826103b0610394565b805460208587018101919091529093019281016108f6565b503461000e57600036600319011261000e57602060405160328152f35b503461000e5760008060031936011261043857604051908060105461096a81610604565b8085529160019180831690811561040e5750600114610993576103b0856103a48187038261069a565b9250601083526000805160206127de8339815191525b8284106109c45750505081016020016103a4826103b0610394565b805460208587018101919091529093019281016109a9565b503461000e5761054e6109ee366104ef565b90604051926109fc84610655565b60008452611873565b604051906106f78261067e565b60209067ffffffffffffffff8111610a30575b601f01601f19160190565b610a3861063e565b610a25565b929192610a4982610a12565b91610a57604051938461069a565b82948184528183011161000e578281602093846000960137010152565b9080601f8301121561000e5781602061035493359101610a3d565b602060031982011261000e576004359067ffffffffffffffff821161000e5761035491600401610a74565b503461000e57610ac936610a8f565b610ad1611663565b805167ffffffffffffffff8111610bfe575b610af781610af2600f54610604565b611d9e565b602080601f8311600114610b6657509181610b56927f70adce1f8ecfc987da6c596389f71bcc98da4db960c083819a4266f0dc75bfc894600091610b5b575b508160011b916000199060031b1c191617600f5560405191829182610343565b0390a1005b905082015138610b36565b600f60005290601f1983166000805160206127fe833981519152926000905b828210610be6575050927f70adce1f8ecfc987da6c596389f71bcc98da4db960c083819a4266f0dc75bfc8949260019282610b569610610bcd575b5050811b01600f556103a4565b84015160001960f88460031b161c191690553880610bc0565b80600185968294968a01518155019501930190610b85565b610c0661063e565b610ae3565b503461000e57602036600319011261000e57600435600854811015610c5d5760086000527ff3f7a9fe364faab93b216da50a3214154f22a0a2b415b23a84c8169e8b636ee30154604051908152602090f35b60405162461bcd60e51b815260206004820152602c60248201527f455243373231456e756d657261626c653a20676c6f62616c20696e646578206f60448201526b7574206f6620626f756e647360a01b6064820152608490fd5b503461000e57602036600319011261000e576001600160a01b03610cd961046c565b16600052600e602052602060ff604060002054166040519015158152f35b503461000e57602036600319011261000e57600435600052600d602052610d5960406000206103b0610d28826107ef565b91610d67610d446002610d3d600185016107ef565b93016107ef565b9160405195869560608752606087019061031e565b90858203602087015261031e565b90838203604085015261031e565b503461000e57602036600319011261000e57602061045a60043561177e565b503461000e57602036600319011261000e576020610db8610db361046c565b6116bb565b604051908152f35b503461000e5760008060031936011261043857610ddb611663565b600a80546001600160a01b0319811690915581906001600160a01b03167f8be0079c531659141344cd1fd0a4f28419497f9722a3daafe3b4186f6b6457e08280a380f35b503461000e57600036600319011261000e576020600c54604051908152f35b503461000e57600036600319011261000e57600a546040516001600160a01b039091168152602090f35b503461000e576000806003193601126104385760405190806001805491610e8e83610604565b8086529282811690811561040e5750600114610eb4576103b0856103a48187038261069a565b92508083527fb10e2d527612073b26eecdfd717e6a320cf44b4afac2b0732d9fcbe2b7fa0cf65b828410610ef65750505081016020016103a4826103b0610394565b80546020858701810191909152909301928101610edb565b503461000e57604036600319011261000e57610f2861046c565b506024358015150361000e5760405162461bcd60e51b8152806104cc60048201612480565b503461000e57608036600319011261000e57610f6761046c565b610f6f610482565b6064359167ffffffffffffffff831161000e573660238401121561000e57610fa461054e933690602481600401359101610a3d565b9160443591611873565b503461000e57602036600319011261000e576004356000818152600260205260409020546001600160a01b0316156111b757610ff490600052600d602052604060002090565b604051607b60f81b60208201526e0113730b6b2911d11213937b636349608d1b6021820152908190600281019061102e6030840182612230565b61088b60f21b81526002017f226465736372697074696f6e223a22666f7220425549444c657273222c0000008152601d01681134b6b0b3b2911d1160b91b815260090161107d91600101612230565b61088b60f21b81526002016d2261747472696275746573223a5b60901b8152600e017f7b2274726169745f74797065223a2250726f76656e616e636520434944222c228152673b30b63ab2911d1160c11b60208201526028016110e09082612230565b61227d60f01b815260020161174b60f21b81526002016c227265736f7572636573223a7b60981b8152600d016d11383937bb32b730b731b2911d1160911b8152600e0161112c91612230565b61227d60f01b8152600201607d60f81b81526001010390601f19918281018252611156908261069a565b61115f90612397565b6040517f646174613a6170706c69636174696f6e2f6a736f6e3b6261736536342c000000602082015291908290603d8201611199916122b3565b0390810182526111a9908261069a565b6040516103b0819282610343565b60405162461bcd60e51b8152602060048201526014602482015273151bdad95b88191bd95cc81b9bdd08195e1a5cdd60621b6044820152606490fd5b503461000e57606036600319011261000e5767ffffffffffffffff60043581811161000e57611226903690600401610a74565b9060243581811161000e5761123f903690600401610a74565b9060443590811161000e57611258903690600401610a74565b6002600b5414611364576103b09261133e916002600b556112a461129f61129b6112943360018060a01b0316600052600e602052604060002090565b5460ff1690565b1590565b611d0d565b6112b26032600c5410611d59565b336000908152600e602052604090206112d290805460ff19166001179055565b6112e06001600c5401600c55565b600c54936112ee853361209e565b805161135e57506112fd6106bc565b905b8051611358575061130e610768565b905b611318610a05565b9283526020830152604082015261133983600052600d602052604060002090565b611f8d565b6113486001600b55565b6040519081529081906020820190565b90611310565b906112ff565b60405162461bcd60e51b815260206004820152601f60248201527f5265656e7472616e637947756172643a207265656e7472616e742063616c6c006044820152606490fd5b503461000e57600036600319011261000e57600c54603281106113d3575060206000604051908152f35b6020906032036032811115610db8576113ea612219565b610db8565b503461000e576113fe36610a8f565b611406611663565b805167ffffffffffffffff811161152e575b61142c81611427601054610604565b611dfd565b602080601f831160011461149657509181610b56927ff7d9f19836aa303db7f38774e0e47a24fb7a52af11e3bcf07c8499052bce2c099460009161148b575b508160011b916000199060031b1c19161760105560405191829182610343565b90508201513861146b565b601060005290601f1983166000805160206127de833981519152926000905b828210611516575050927ff7d9f19836aa303db7f38774e0e47a24fb7a52af11e3bcf07c8499052bce2c09949260019282610b5696106114fd575b5050811b016010556103a4565b84015160001960f88460031b161c1916905538806114f0565b80600185968294968a015181550195019301906114b5565b61153661063e565b611418565b503461000e57604036600319011261000e57602060ff61158d61155c61046c565b611564610482565b6001600160a01b0391821660009081526005865260408082209290931681526020919091522090565b54166040519015158152f35b503461000e57602036600319011261000e576115b361046c565b6115bb611663565b6001600160a01b0390811690811561160f57600a54826bffffffffffffffffffffffff60a01b821617600a55167f8be0079c531659141344cd1fd0a4f28419497f9722a3daafe3b4186f6b6457e0600080a3005b60405162461bcd60e51b815260206004820152602660248201527f4f776e61626c653a206e6577206f776e657220697320746865207a65726f206160448201526564647265737360d01b6064820152608490fd5b600a546001600160a01b0316330361167757565b606460405162461bcd60e51b815260206004820152602060248201527f4f776e61626c653a2063616c6c6572206973206e6f7420746865206f776e65726044820152fd5b6001600160a01b031680156116db57600052600360205260406000205490565b60405162461bcd60e51b815260206004820152602960248201527f4552433732313a2061646472657373207a65726f206973206e6f7420612076616044820152683634b21037bbb732b960b91b6064820152608490fd5b1561173957565b60405162461bcd60e51b815260206004820152601860248201527f4552433732313a20696e76616c696420746f6b656e20494400000000000000006044820152606490fd5b6000908152600260205260409020546001600160a01b0316610354811515611732565b6000818152600260205260409020546117c4906001600160a01b03161515611732565b6000908152600460205260409020546001600160a01b031690565b156117e657565b60405162461bcd60e51b815260206004820152602d60248201527f4552433732313a2063616c6c6572206973206e6f7420746f6b656e206f776e6560448201526c1c881bdc88185c1c1c9bdd9959609a1b6064820152608490fd5b604051906020820182811067ffffffffffffffff821117611866575b60405260008252565b61186e61063e565b61185d565b916106f7939161189a9361188a6105448433611912565b6118958383836119e4565b611cba565b6118f2565b60809060208152603260208201527f4552433732313a207472616e7366657220746f206e6f6e20455243373231526560408201527131b2b4bb32b91034b6b83632b6b2b73a32b960711b60608201520190565b156118f957565b60405162461bcd60e51b8152806104cc6004820161189f565b6001600160a01b03806119248461177e565b16928183169284841494851561195a575b50508315611944575b50505090565b611950919293506117a1565b161438808061193e565b60009081526005602090815260408083206001600160a01b03949094168352929052205460ff1693503880611935565b1561199157565b60405162461bcd60e51b815260206004820152602560248201527f4552433732313a207472616e736665722066726f6d20696e636f72726563742060448201526437bbb732b960d91b6064820152608490fd5b611a08906119f18461177e565b6001600160a01b038281169390918216841461198a565b8316928315611b0757611a8682611a238784611ae0966124b8565b611a4585611a3f611a338a61177e565b6001600160a01b031690565b1461198a565b611a6c611a5c886000526004602052604060002090565b80546001600160a01b0319169055565b6001600160a01b0316600090815260036020526040902090565b80546000190190556001600160a01b038116600090815260036020526040902060018154019055611ac1856000526002602052604060002090565b80546001600160a01b0319166001600160a01b03909216919091179055565b7fddf252ad1be2c89b69c2b068fc378daa952ba7f163c4a11628f55a4df523b3ef600080a4565b60405162461bcd60e51b8152602060048201526024808201527f4552433732313a207472616e7366657220746f20746865207a65726f206164646044820152637265737360e01b6064820152608490fd5b9081602091031261000e575161035481610260565b610354939260809260018060a01b03168252600060208301526040820152816060820152019061031e565b6001600160a01b0391821681529116602082015260408101919091526080606082018190526103549291019061031e565b3d15611bf4573d90611bda82610a12565b91611be8604051938461069a565b82523d6000602084013e565b606090565b909190803b15611cb257611c2b602091600093604051948580948193630a85bd0160e11b998a84523360048501611b6d565b03926001600160a01b03165af160009181611c82575b50611c7457611c4e611bc9565b80519081611c6f5760405162461bcd60e51b8152806104cc6004820161189f565b602001fd5b6001600160e01b0319161490565b611ca491925060203d8111611cab575b611c9c818361069a565b810190611b58565b9038611c41565b503d611c92565b505050600190565b92909190823b15611ced57611c2b926020926000604051809681958294630a85bd0160e11b9a8b85523360048601611b98565b50505050600190565b50634e487b7160e01b600052603260045260246000fd5b15611d1457565b60405162461bcd60e51b815260206004820152601a60248201527f4164647265737320616c7265616479206861732042726f6c6c690000000000006044820152606490fd5b15611d6057565b60405162461bcd60e51b815260206004820152601660248201527513585e1a5b5d5b481cdd5c1c1b1e481c995858da195960521b6044820152606490fd5b601f8111611daa575050565b600090600f82526000805160206127fe833981519152906020601f850160051c83019410611df3575b601f0160051c01915b828110611de857505050565b818155600101611ddc565b9092508290611dd3565b601f8111611e09575050565b600090601082526000805160206127de833981519152906020601f850160051c83019410611e52575b601f0160051c01915b828110611e4757505050565b818155600101611e3b565b9092508290611e32565b90601f8111611e6a57505050565b600091825260208220906020601f850160051c83019410611ea6575b601f0160051c01915b828110611e9b57505050565b818155600101611e8f565b9092508290611e86565b919091825167ffffffffffffffff8111611f80575b611ed981611ed38454610604565b84611e5c565b602080601f8311600114611f15575081929394600092611f0a575b50508160011b916000199060031b1c1916179055565b015190503880611ef4565b90601f19831695611f2b85600052602060002090565b926000905b888210611f6857505083600195969710611f4f575b505050811b019055565b015160001960f88460031b161c19169055388080611f45565b80600185968294968601518155019501930190611f30565b611f8861063e565b611ec5565b919091825192835167ffffffffffffffff8111612091575b611fb981611fb38554610604565b85611e5c565b6020948590601f8311600114612017576106f7959683604094600296946120039460009261200c575b50508160011b916000199060031b1c19161786555b82015160018601611eb0565b01519101611eb0565b015190503880611fe2565b90601f1983169161202d86600052602060002090565b9260005b81811061207a57508460029694612003946106f79a9b9460409860019510612061575b505050811b018655611ff7565b015160001960f88460031b161c19169055388080612054565b929389600181928786015181550195019301612031565b61209961063e565b611fa5565b906040516120ab81610655565b600081526001600160a01b038316918215612189576106f7938161189a946120f16120eb83600052600260205260018060a01b0360406000205416151590565b156121cd565b6120fa8261264e565b6121048284612616565b600082815260026020526040902054612127906001600160a01b031615156120eb565b6001600160a01b03831660009081526003602052604090206001815401905561215e83611ac1846000526002602052604060002090565b60007fddf252ad1be2c89b69c2b068fc378daa952ba7f163c4a11628f55a4df523b3ef8180a4611bf9565b606460405162461bcd60e51b815260206004820152602060248201527f4552433732313a206d696e7420746f20746865207a65726f20616464726573736044820152fd5b156121d457565b60405162461bcd60e51b815260206004820152601c60248201527f4552433732313a20746f6b656e20616c7265616479206d696e746564000000006044820152606490fd5b50634e487b7160e01b600052601160045260246000fd5b60009291815461223f81610604565b92600191808316908115612298575060011461225c575b50505050565b90919293945060005260209081600020906000915b8583106122875750505050019038808080612256565b805485840152918301918101612271565b60ff1916845250505081151590910201915038808080612256565b906122c6602092828151948592016102fb565b0190565b604051906122d78261067e565b604082527f6768696a6b6c6d6e6f707172737475767778797a303132333435363738392b2f6040837f4142434445464748494a4b4c4d4e4f505152535455565758595a61626364656660208201520152565b906002820180921161233757565b6106f7612219565b906020820180921161233757565b600281901b91906001600160fe1b0381160361233757565b9061236f82610a12565b61237c604051918261069a565b828152809261238d601f1991610a12565b0190602036910137565b805115612477576123a66122ca565b6123c26123bd6123b68451612329565b6003900490565b61234d565b916123d46123cf8461233f565b612365565b92835280815182019060208501935b8282106124255750505060039051068060011461241457600214612405575090565b603d60f81b6000199091015290565b50613d3d60f01b6001199091015290565b9091936004906003809401938451600190603f9082828260121c16880101518553828282600c1c16880101518386015382828260061c16880101516002860153168501015190820153019391906123e3565b50610354611841565b60609060208152601960208201527f546f6b656e206973206e6f6e2d7472616e7366657261626c650000000000000060408201520190565b9091906001600160a01b0380821691821580801561260c575b156125f3571561250a57506124e58361264e565b8316806124f85750506106f791506126c7565b03612501575050565b6106f791612616565b818516830361251a575b506124e5565b612523816116bb565b60001981019081116125e6575b61257c6000928684526007602052604084205483810361258d575b5083612561886000526007602052604060002090565b556001600160a01b0316600090815260066020526040902090565b908252602052604081205538612514565b8685526006602052604085208486526020526125df60408620546125c38460018060a01b03166000526006602052604060002090565b8388526020528060408820556000526007602052604060002090565b553861254b565b6125ee612219565b612530565b60405162461bcd60e51b8152806104cc60048201612480565b50828616156124d1565b604090612622816116bb565b9260009160018060a01b0316825260066020528282208483526020528083832055815260076020522055565b60085481600052600960205280604060002055680100000000000000008110156126ba575b60018101806008558110156126ad575b60086000527ff3f7a9fe364faab93b216da50a3214154f22a0a2b415b23a84c8169e8b636ee30155565b6126b5611cf6565b612683565b6126c261063e565b612673565b6008805460001992908381018181116127d0575b612777600093849281845260096020528460408520549110156127c3575b8684526127667ff3f7a9fe364faab93b216da50a3214154f22a0a2b415b23a84c8169e8b636ee29586810154908310156127b6575b88865280837ff3f7a9fe364faab93b216da50a3214154f22a0a2b415b23a84c8169e8b636ee301556000526009602052604060002090565b556000526009602052604060002090565b5582549384156127a25784019380851015612795575b838352015555565b61279d611cf6565b61278d565b634e487b7160e01b83526031600452602483fd5b6127be611cf6565b61272e565b6127cb611cf6565b6126f9565b6127d8612219565b6126db56fe1b6847dc741a1b0cd08d278845f9d819d87b734759afb55fe2de5cb82a9ae6728d1108e10bcb7c27dddfc02ed9d693a074039d026cf4ea4240b40f7d581ac802a26469706673582212205ca4a4cdf77883086263799406ff2b09e9bd05414290ff42058aa91783060d4564736f6c6343000811003370696e6174612e636c6f75642f697066732f6261666b72656964633771626b64",
  "devdoc": {
    "kind": "dev",
    "methods": {
      "balanceOf(address)": {
        "details": "See {IERC721-balanceOf}."
      },
      "getApproved(uint256)": {
        "details": "See {IERC721-getApproved}."
      },
      "isApprovedForAll(address,address)": {
        "details": "See {IERC721-isApprovedForAll}."
      },
      "name()": {
        "details": "See {IERC721Metadata-name}."
      },
      "owner()": {
        "details": "Returns the address of the current owner."
      },
      "ownerOf(uint256)": {
        "details": "See {IERC721-ownerOf}."
      },
      "renounceOwnership()": {
        "details": "Leaves the contract without owner. It will not be possible to call `onlyOwner` functions. Can only be called by the current owner. NOTE: Renouncing ownership will leave the contract without an owner, thereby disabling any functionality that is only available to the owner."
      },
      "safeTransferFrom(address,address,uint256)": {
        "details": "See {IERC721-safeTransferFrom}."
      },
      "safeTransferFrom(address,address,uint256,bytes)": {
        "details": "See {IERC721-safeTransferFrom}."
      },
      "supportsInterface(bytes4)": {
        "details": "See {IERC165-supportsInterface}."
      },
      "symbol()": {
        "details": "See {IERC721Metadata-symbol}."
      },
      "tokenByIndex(uint256)": {
        "details": "See {IERC721Enumerable-tokenByIndex}."
      },
      "tokenOfOwnerByIndex(address,uint256)": {
        "details": "See {IERC721Enumerable-tokenOfOwnerByIndex}."
      },
      "tokenURI(uint256)": {
        "details": "See {IERC721Metadata-tokenURI}."
      },
      "totalSupply()": {
        "details": "See {IERC721Enumerable-totalSupply}."
      },
      "transferFrom(address,address,uint256)": {
        "details": "See {IERC721-transferFrom}."
      },
      "transferOwnership(address)": {
        "details": "Transfers ownership of the contract to a new account (`newOwner`). Can only be called by the current owner."
      }
    },
    "version": 1
  },
  "userdoc": {
    "kind": "user",
    "methods": {},
    "version": 1
  },
  "storageLayout": {
    "storage": [
      {
        "astId": 203,
        "contract": "contracts/Brolli.sol:Brolli",
        "label": "_name",
        "offset": 0,
        "slot": "0",
        "type": "t_string_storage"
      },
      {
        "astId": 205,
        "contract": "contracts/Brolli.sol:Brolli",
        "label": "_symbol",
        "offset": 0,
        "slot": "1",
        "type": "t_string_storage"
      },
      {
        "astId": 209,
        "contract": "contracts/Brolli.sol:Brolli",
        "label": "_owners",
        "offset": 0,
        "slot": "2",
        "type": "t_mapping(t_uint256,t_address)"
      },
      {
        "astId": 213,
        "contract": "contracts/Brolli.sol:Brolli",
        "label": "_balances",
        "offset": 0,
        "slot": "3",
        "type": "t_mapping(t_address,t_uint256)"
      },
      {
        "astId": 217,
        "contract": "contracts/Brolli.sol:Brolli",
        "label": "_tokenApprovals",
        "offset": 0,
        "slot": "4",
        "type": "t_mapping(t_uint256,t_address)"
      },
      {
        "astId": 223,
        "contract": "contracts/Brolli.sol:Brolli",
        "label": "_operatorApprovals",
        "offset": 0,
        "slot": "5",
        "type": "t_mapping(t_address,t_mapping(t_address,t_bool))"
      },
      {
        "astId": 1253,
        "contract": "contracts/Brolli.sol:Brolli",
        "label": "_ownedTokens",
        "offset": 0,
        "slot": "6",
        "type": "t_mapping(t_address,t_mapping(t_uint256,t_uint256))"
      },
      {
        "astId": 1257,
        "contract": "contracts/Brolli.sol:Brolli",
        "label": "_ownedTokensIndex",
        "offset": 0,
        "slot": "7",
        "type": "t_mapping(t_uint256,t_uint256)"
      },
      {
        "astId": 1260,
        "contract": "contracts/Brolli.sol:Brolli",
        "label": "_allTokens",
        "offset": 0,
        "slot": "8",
        "type": "t_array(t_uint256)dyn_storage"
      },
      {
        "astId": 1264,
        "contract": "contracts/Brolli.sol:Brolli",
        "label": "_allTokensIndex",
        "offset": 0,
        "slot": "9",
        "type": "t_mapping(t_uint256,t_uint256)"
      },
      {
        "astId": 7,
        "contract": "contracts/Brolli.sol:Brolli",
        "label": "_owner",
        "offset": 0,
        "slot": "10",
        "type": "t_address"
      },
      {
        "astId": 123,
        "contract": "contracts/Brolli.sol:Brolli",
        "label": "_status",
        "offset": 0,
        "slot": "11",
        "type": "t_uint256"
      },
      {
        "astId": 3455,
        "contract": "contracts/Brolli.sol:Brolli",
        "label": "_tokenIds",
        "offset": 0,
        "slot": "12",
        "type": "t_struct(Counter)2016_storage"
      },
      {
        "astId": 3475,
        "contract": "contracts/Brolli.sol:Brolli",
        "label": "metadataByTokenId",
        "offset": 0,
        "slot": "13",
        "type": "t_mapping(t_uint256,t_struct(Meta)3462_storage)"
      },
      {
        "astId": 3479,
        "contract": "contracts/Brolli.sol:Brolli",
        "label": "hasLicense",
        "offset": 0,
        "slot": "14",
        "type": "t_mapping(t_address,t_bool)"
      },
      {
        "astId": 3485,
        "contract": "contracts/Brolli.sol:Brolli",
        "label": "defaultImageUri",
        "offset": 0,
        "slot": "15",
        "type": "t_string_storage"
      },
      {
        "astId": 3488,
        "contract": "contracts/Brolli.sol:Brolli",
        "label": "defaultProvenanceCid",
        "offset": 0,
        "slot": "16",
        "type": "t_string_storage"
      }
    ],
    "types": {
      "t_address": {
        "encoding": "inplace",
        "label": "address",
        "numberOfBytes": "20"
      },
      "t_array(t_uint256)dyn_storage": {
        "base": "t_uint256",
        "encoding": "dynamic_array",
        "label": "uint256[]",
        "numberOfBytes": "32"
      },
      "t_bool": {
        "encoding": "inplace",
        "label": "bool",
        "numberOfBytes": "1"
      },
      "t_mapping(t_address,t_bool)": {
        "encoding": "mapping",
        "key": "t_address",
        "label": "mapping(address => bool)",
        "numberOfBytes": "32",
        "value": "t_bool"
      },
      "t_mapping(t_address,t_mapping(t_address,t_bool))": {
        "encoding": "mapping",
        "key": "t_address",
        "label": "mapping(address => mapping(address => bool))",
        "numberOfBytes": "32",
        "value": "t_mapping(t_address,t_bool)"
      },
      "t_mapping(t_address,t_mapping(t_uint256,t_uint256))": {
        "encoding": "mapping",
        "key": "t_address",
        "label": "mapping(address => mapping(uint256 => uint256))",
        "numberOfBytes": "32",
        "value": "t_mapping(t_uint256,t_uint256)"
      },
      "t_mapping(t_address,t_uint256)": {
        "encoding": "mapping",
        "key": "t_address",
        "label": "mapping(address => uint256)",
        "numberOfBytes": "32",
        "value": "t_uint256"
      },
      "t_mapping(t_uint256,t_address)": {
        "encoding": "mapping",
        "key": "t_uint256",
        "label": "mapping(uint256 => address)",
        "numberOfBytes": "32",
        "value": "t_address"
      },
      "t_mapping(t_uint256,t_struct(Meta)3462_storage)": {
        "encoding": "mapping",
        "key": "t_uint256",
        "label": "mapping(uint256 => struct Brolli.Meta)",
        "numberOfBytes": "32",
        "value": "t_struct(Meta)3462_storage"
      },
      "t_mapping(t_uint256,t_uint256)": {
        "encoding": "mapping",
        "key": "t_uint256",
        "label": "mapping(uint256 => uint256)",
        "numberOfBytes": "32",
        "value": "t_uint256"
      },
      "t_string_storage": {
        "encoding": "bytes",
        "label": "string",
        "numberOfBytes": "32"
      },
      "t_struct(Counter)2016_storage": {
        "encoding": "inplace",
        "label": "struct Counters.Counter",
        "members": [
          {
            "astId": 2015,
            "contract": "contracts/Brolli.sol:Brolli",
            "label": "_value",
            "offset": 0,
            "slot": "0",
            "type": "t_uint256"
          }
        ],
        "numberOfBytes": "32"
      },
      "t_struct(Meta)3462_storage": {
        "encoding": "inplace",
        "label": "struct Brolli.Meta",
        "members": [
          {
            "astId": 3457,
            "contract": "contracts/Brolli.sol:Brolli",
            "label": "name",
            "offset": 0,
            "slot": "0",
            "type": "t_string_storage"
          },
          {
            "astId": 3459,
            "contract": "contracts/Brolli.sol:Brolli",
            "label": "imageUri",
            "offset": 0,
            "slot": "1",
            "type": "t_string_storage"
          },
          {
            "astId": 3461,
            "contract": "contracts/Brolli.sol:Brolli",
            "label": "provenanceCid",
            "offset": 0,
            "slot": "2",
            "type": "t_string_storage"
          }
        ],
        "numberOfBytes": "96"
      },
      "t_uint256": {
        "encoding": "inplace",
        "label": "uint256",
        "numberOfBytes": "32"
      }
    }
  }
}